{
  "contractName": "SubscriptionService",
  "abi": [
    {
      "inputs": [],
      "stateMutability": "nonpayable",
      "type": "constructor"
    },
    {
      "anonymous": false,
      "inputs": [
        {
          "indexed": true,
          "internalType": "address",
          "name": "subscriber",
          "type": "address"
        }
      ],
      "name": "SubscriptionCanceled",
      "type": "event"
    },
    {
      "anonymous": false,
      "inputs": [
        {
          "indexed": false,
          "internalType": "uint256",
          "name": "PlanId",
          "type": "uint256"
        },
        {
          "indexed": false,
          "internalType": "uint256",
          "name": "MonthlyFee",
          "type": "uint256"
        }
      ],
      "name": "SubscriptionPlanSet",
      "type": "event"
    },
    {
      "anonymous": false,
      "inputs": [
        {
          "indexed": true,
          "internalType": "address",
          "name": "subscriber",
          "type": "address"
        },
        {
          "indexed": false,
          "internalType": "uint256",
          "name": "planId",
          "type": "uint256"
        }
      ],
      "name": "SubscriptionRenewed",
      "type": "event"
    },
    {
      "anonymous": false,
      "inputs": [
        {
          "indexed": true,
          "internalType": "address",
          "name": "subscriber",
          "type": "address"
        },
        {
          "indexed": false,
          "internalType": "uint256",
          "name": "PlanId",
          "type": "uint256"
        }
      ],
      "name": "SubscriptionStarted",
      "type": "event"
    },
    {
      "anonymous": false,
      "inputs": [
        {
          "indexed": false,
          "internalType": "uint256",
          "name": "balance",
          "type": "uint256"
        }
      ],
      "name": "Withdraw",
      "type": "event"
    },
    {
      "inputs": [],
      "name": "serviceProvider",
      "outputs": [
        {
          "internalType": "address",
          "name": "",
          "type": "address"
        }
      ],
      "stateMutability": "view",
      "type": "function",
      "constant": true
    },
    {
      "inputs": [
        {
          "internalType": "address",
          "name": "",
          "type": "address"
        }
      ],
      "name": "subscribers",
      "outputs": [
        {
          "internalType": "uint256",
          "name": "balance",
          "type": "uint256"
        },
        {
          "internalType": "uint256",
          "name": "subscriptionTime",
          "type": "uint256"
        },
        {
          "internalType": "uint256",
          "name": "planId",
          "type": "uint256"
        },
        {
          "internalType": "bool",
          "name": "isActive",
          "type": "bool"
        }
      ],
      "stateMutability": "view",
      "type": "function",
      "constant": true
    },
    {
      "inputs": [
        {
          "internalType": "uint256",
          "name": "",
          "type": "uint256"
        }
      ],
      "name": "subscriptionPlans",
      "outputs": [
        {
          "internalType": "uint256",
          "name": "",
          "type": "uint256"
        }
      ],
      "stateMutability": "view",
      "type": "function",
      "constant": true
    },
    {
      "stateMutability": "payable",
      "type": "receive",
      "payable": true
    },
    {
      "inputs": [
        {
          "internalType": "uint256",
          "name": "planId",
          "type": "uint256"
        },
        {
          "internalType": "uint256",
          "name": "monthlyFee",
          "type": "uint256"
        }
      ],
      "name": "setSubscriptionPlan",
      "outputs": [],
      "stateMutability": "nonpayable",
      "type": "function"
    },
    {
      "inputs": [
        {
          "internalType": "uint256",
          "name": "planId",
          "type": "uint256"
        }
      ],
      "name": "subscribe",
      "outputs": [],
      "stateMutability": "payable",
      "type": "function",
      "payable": true
    },
    {
      "inputs": [],
      "name": "isSubscriptionActive",
      "outputs": [
        {
          "internalType": "bool",
          "name": "",
          "type": "bool"
        }
      ],
      "stateMutability": "view",
      "type": "function",
      "constant": true
    },
    {
      "inputs": [],
      "name": "autoRenew",
      "outputs": [],
      "stateMutability": "payable",
      "type": "function",
      "payable": true
    },
    {
      "inputs": [],
      "name": "cancelSubscription",
      "outputs": [],
      "stateMutability": "nonpayable",
      "type": "function"
    },
    {
      "inputs": [],
      "name": "withdraw",
      "outputs": [],
      "stateMutability": "nonpayable",
      "type": "function"
    }
  ],
  "bytecode": "0x608060405234801561001057600080fd5b50336000806101000a81548173ffffffffffffffffffffffffffffffffffffffff021916908373ffffffffffffffffffffffffffffffffffffffff16021790555061112d806100606000396000f3fe60806040526004361061008a5760003560e01c80633ccfd60b116100595780633ccfd60b146101105780635745ae28146101275780635dc8f865146101675780638d69e95e14610192578063c4727940146101bd57610091565b80630708f35d146100965780630f574ba7146100a057806324e9edb0146100bc578063284c7f35146100d357610091565b3661009157005b600080fd5b61009e6101e6565b005b6100ba60048036038101906100b59190610b6b565b610439565b005b3480156100c857600080fd5b506100d161066a565b005b3480156100df57600080fd5b506100fa60048036038101906100f59190610b6b565b610799565b6040516101079190610ba7565b60405180910390f35b34801561011c57600080fd5b506101256107b1565b005b34801561013357600080fd5b5061014e60048036038101906101499190610c20565b610928565b60405161015e9493929190610c68565b60405180910390f35b34801561017357600080fd5b5061017c610965565b6040516101899190610cad565b60405180910390f35b34801561019e57600080fd5b506101a7610a29565b6040516101b49190610cd7565b60405180910390f35b3480156101c957600080fd5b506101e460048036038101906101df9190610cf2565b610a4d565b005b600260003373ffffffffffffffffffffffffffffffffffffffff1673ffffffffffffffffffffffffffffffffffffffff16815260200190815260200160002060030160009054906101000a900460ff16610275576040517f08c379a000000000000000000000000000000000000000000000000000000000815260040161026c90610d8f565b60405180910390fd5b6000600260003373ffffffffffffffffffffffffffffffffffffffff1673ffffffffffffffffffffffffffffffffffffffff16815260200190815260200160002060020154905060006001600083815260200190815260200160002054905060008111610317576040517f08c379a000000000000000000000000000000000000000000000000000000000815260040161030e90610dfb565b60405180910390fd5b803414610359576040517f08c379a000000000000000000000000000000000000000000000000000000000815260040161035090610e67565b60405180910390fd5b610361610965565b6103a0576040517f08c379a000000000000000000000000000000000000000000000000000000000815260040161039790610ed3565b60405180910390fd5b42600260003373ffffffffffffffffffffffffffffffffffffffff1673ffffffffffffffffffffffffffffffffffffffff168152602001908152602001600020600101819055503373ffffffffffffffffffffffffffffffffffffffff167f0e3bc79b6527253ae333c773455df588f62bcc1ad9726d42dbdc179356232a608360405161042d9190610ba7565b60405180910390a25050565b60006001600083815260200190815260200160002054905060008111610494576040517f08c379a000000000000000000000000000000000000000000000000000000000815260040161048b90610f3f565b60405180910390fd5b8034146104d6576040517f08c379a00000000000000000000000000000000000000000000000000000000081526004016104cd90610e67565b60405180910390fd5b34600260003373ffffffffffffffffffffffffffffffffffffffff1673ffffffffffffffffffffffffffffffffffffffff16815260200190815260200160002060000160008282546105289190610f8e565b9250508190555042600260003373ffffffffffffffffffffffffffffffffffffffff1673ffffffffffffffffffffffffffffffffffffffff1681526020019081526020016000206001018190555081600260003373ffffffffffffffffffffffffffffffffffffffff1673ffffffffffffffffffffffffffffffffffffffff168152602001908152602001600020600201819055506001600260003373ffffffffffffffffffffffffffffffffffffffff1673ffffffffffffffffffffffffffffffffffffffff16815260200190815260200160002060030160006101000a81548160ff0219169083151502179055503373ffffffffffffffffffffffffffffffffffffffff167f3569431152110722ac0db636dd27ae1423bce34e35a19c281a7b4fcbb280ceb58360405161065e9190610ba7565b60405180910390a25050565b600260003373ffffffffffffffffffffffffffffffffffffffff1673ffffffffffffffffffffffffffffffffffffffff16815260200190815260200160002060030160009054906101000a900460ff166106f9576040517f08c379a00000000000000000000000000000000000000000000000000000000081526004016106f090610d8f565b60405180910390fd5b6000600260003373ffffffffffffffffffffffffffffffffffffffff1673ffffffffffffffffffffffffffffffffffffffff16815260200190815260200160002060030160006101000a81548160ff0219169083151502179055503373ffffffffffffffffffffffffffffffffffffffff167f5213c53f2b929aa370ea1f22f57b571b8a8d78a193eb26b0d9596561e335aa0460405160405180910390a2565b60016020528060005260406000206000915090505481565b60008054906101000a900473ffffffffffffffffffffffffffffffffffffffff1673ffffffffffffffffffffffffffffffffffffffff163373ffffffffffffffffffffffffffffffffffffffff161461083f576040517f08c379a00000000000000000000000000000000000000000000000000000000081526004016108369061100e565b60405180910390fd5b600047905060008111610887576040517f08c379a000000000000000000000000000000000000000000000000000000000815260040161087e9061107a565b60405180910390fd5b7f5b6b431d4476a211bb7d41c20d1aab9ae2321deee0d20be3d9fc9b1093fa6e3d816040516108b69190610ba7565b60405180910390a160008054906101000a900473ffffffffffffffffffffffffffffffffffffffff1673ffffffffffffffffffffffffffffffffffffffff166108fc829081150290604051600060405180830381858888f19350505050158015610924573d6000803e3d6000fd5b5050565b60026020528060005260406000206000915090508060000154908060010154908060020154908060030160009054906101000a900460ff16905084565b600080600260003373ffffffffffffffffffffffffffffffffffffffff1673ffffffffffffffffffffffffffffffffffffffff1681526020019081526020016000206040518060800160405290816000820154815260200160018201548152602001600282015481526020016003820160009054906101000a900460ff16151515158152505090508060600151610a00576000915050610a26565b6000816020015142610a12919061109a565b9050600062278d0090508082111593505050505b90565b60008054906101000a900473ffffffffffffffffffffffffffffffffffffffff1681565b60008054906101000a900473ffffffffffffffffffffffffffffffffffffffff1673ffffffffffffffffffffffffffffffffffffffff163373ffffffffffffffffffffffffffffffffffffffff1614610adb576040517f08c379a0000000000000000000000000000000000000000000000000000000008152600401610ad29061100e565b60405180910390fd5b8060016000848152602001908152602001600020819055507fad98b468cca2e8cd3b937b371acc7e942a569888945e9843a712047b57d6c2268282604051610b249291906110ce565b60405180910390a15050565b600080fd5b6000819050919050565b610b4881610b35565b8114610b5357600080fd5b50565b600081359050610b6581610b3f565b92915050565b600060208284031215610b8157610b80610b30565b5b6000610b8f84828501610b56565b91505092915050565b610ba181610b35565b82525050565b6000602082019050610bbc6000830184610b98565b92915050565b600073ffffffffffffffffffffffffffffffffffffffff82169050919050565b6000610bed82610bc2565b9050919050565b610bfd81610be2565b8114610c0857600080fd5b50565b600081359050610c1a81610bf4565b92915050565b600060208284031215610c3657610c35610b30565b5b6000610c4484828501610c0b565b91505092915050565b60008115159050919050565b610c6281610c4d565b82525050565b6000608082019050610c7d6000830187610b98565b610c8a6020830186610b98565b610c976040830185610b98565b610ca46060830184610c59565b95945050505050565b6000602082019050610cc26000830184610c59565b92915050565b610cd181610be2565b82525050565b6000602082019050610cec6000830184610cc8565b92915050565b60008060408385031215610d0957610d08610b30565b5b6000610d1785828601610b56565b9250506020610d2885828601610b56565b9150509250929050565b600082825260208201905092915050565b7f537562736372697074696f6e206973206e6f7420616374697665000000000000600082015250565b6000610d79601a83610d32565b9150610d8482610d43565b602082019050919050565b60006020820190508181036000830152610da881610d6c565b9050919050565b7f537562736372697074696f6e20706c616e206e6f742073657400000000000000600082015250565b6000610de5601983610d32565b9150610df082610daf565b602082019050919050565b60006020820190508181036000830152610e1481610dd8565b9050919050565b7f496e636f727265637420737562736372697074696f6e20666565000000000000600082015250565b6000610e51601a83610d32565b9150610e5c82610e1b565b602082019050919050565b60006020820190508181036000830152610e8081610e44565b9050919050565b7f537562736372697074696f6e2065787069726564000000000000000000000000600082015250565b6000610ebd601483610d32565b9150610ec882610e87565b602082019050919050565b60006020820190508181036000830152610eec81610eb0565b9050919050565b7f496e76616c696420737562736372697074696f6e20706c616e00000000000000600082015250565b6000610f29601983610d32565b9150610f3482610ef3565b602082019050919050565b60006020820190508181036000830152610f5881610f1c565b9050919050565b7f4e487b7100000000000000000000000000000000000000000000000000000000600052601160045260246000fd5b6000610f9982610b35565b9150610fa483610b35565b9250828201905080821115610fbc57610fbb610f5f565b5b92915050565b7f4e6f7420617574686f72697a6564000000000000000000000000000000000000600082015250565b6000610ff8600e83610d32565b915061100382610fc2565b602082019050919050565b6000602082019050818103600083015261102781610feb565b9050919050565b7f4e6f2066756e647320617661696c61626c650000000000000000000000000000600082015250565b6000611064601283610d32565b915061106f8261102e565b602082019050919050565b6000602082019050818103600083015261109381611057565b9050919050565b60006110a582610b35565b91506110b083610b35565b92508282039050818111156110c8576110c7610f5f565b5b92915050565b60006040820190506110e36000830185610b98565b6110f06020830184610b98565b939250505056fea26469706673582212206bc48b86524eb57cc7179bf87c7bf555b8d088a7a784985a6f7b793a5452ecfa64736f6c63430008130033",
  "immutableReferences": {},
  "source": "// SPDX-License-Identifier: MIT\r\npragma solidity ^0.8.0;\r\n\r\ncontract SubscriptionService {\r\n\r\n    struct Subscriber {\r\n        uint256 balance;\r\n        uint256 subscriptionTime;\r\n        uint256 planId;\r\n        bool isActive;\r\n    }\r\n\r\n    address public serviceProvider;\r\n    mapping(uint256 => uint256) public subscriptionPlans;\r\n    mapping(address => Subscriber) public subscribers;\r\n\r\n    event SubscriptionStarted(address indexed subscriber, uint256 PlanId);\r\n    event SubscriptionRenewed(address indexed subscriber, uint256 planId);\r\n    event SubscriptionCanceled(address indexed subscriber);\r\n    event SubscriptionPlanSet(uint256 PlanId, uint256 MonthlyFee);\r\n    event Withdraw(uint256 balance);\r\n\r\n    modifier onlyServiceProvider() {\r\n        require(msg.sender == serviceProvider, \"Not authorized\");\r\n        _;\r\n    }\r\n\r\n    modifier onlyActiveSubscriber() {\r\n        require(subscribers[msg.sender].isActive, \"Subscription is not active\");\r\n        _;\r\n    }\r\n\r\n    constructor() {\r\n        serviceProvider = msg.sender;\r\n    }\r\n\r\n    function setSubscriptionPlan(uint256 planId, uint256 monthlyFee) external onlyServiceProvider {\r\n        subscriptionPlans[planId] = monthlyFee;\r\n        emit SubscriptionPlanSet(planId, monthlyFee);\r\n    }\r\n\r\n    function subscribe(uint256 planId) external payable {\r\n        uint256 fee = subscriptionPlans[planId];\r\n        require(fee > 0, \"Invalid subscription plan\");\r\n        require(msg.value == fee, \"Incorrect subscription fee\");\r\n\r\n        subscribers[msg.sender].balance += msg.value;\r\n        subscribers[msg.sender].subscriptionTime = block.timestamp;\r\n        subscribers[msg.sender].planId = planId;\r\n        subscribers[msg.sender].isActive = true;\r\n\r\n        emit SubscriptionStarted(msg.sender, planId);\r\n    }\r\n\r\n    function isSubscriptionActive() public view returns (bool) {\r\n        Subscriber memory sub = subscribers[msg.sender];\r\n        if (!sub.isActive) return false;\r\n        uint256 elapsedTime = block.timestamp - sub.subscriptionTime;\r\n        uint256 requiredTime = 30 days;\r\n        return elapsedTime <= requiredTime;\r\n    }\r\n\r\n    function autoRenew() external onlyActiveSubscriber payable {\r\n        uint256 planId = subscribers[msg.sender].planId;\r\n        uint256 fee = subscriptionPlans[planId];\r\n        require(fee > 0, \"Subscription plan not set\");\r\n        require(msg.value == fee, \"Incorrect subscription fee\");\r\n\r\n        require(isSubscriptionActive(), \"Subscription expired\");\r\n        \r\n        subscribers[msg.sender].subscriptionTime = block.timestamp;\r\n\r\n        emit SubscriptionRenewed(msg.sender, planId);\r\n    }\r\n\r\n    function cancelSubscription() external onlyActiveSubscriber {\r\n        subscribers[msg.sender].isActive = false;\r\n        emit SubscriptionCanceled(msg.sender);\r\n    }\r\n\r\n    function withdraw() external onlyServiceProvider {\r\n        uint256 balance = address(this).balance;\r\n        require(balance > 0, \"No funds available\");\r\n        emit Withdraw(balance);\r\n        payable(serviceProvider).transfer(balance);\r\n    }\r\n\r\n    receive() external payable {}\r\n}\r\n",
  "sourcePath": "C:\\Users\\tomas\\Desktop\\Dapp\\contracts\\Subscription.sol",
  "compiler": {
    "name": "solc",
    "version": "0.8.19+commit.7dd6d404.Emscripten.clang"
  },
  "schemaVersion": "3.4.16",
  "updatedAt": "2024-12-07T15:38:01.528Z",
  "networkType": "ethereum",
  "devdoc": {
    "kind": "dev",
    "methods": {},
    "version": 1
  },
  "userdoc": {
    "kind": "user",
    "methods": {},
    "version": 1
  }
}