{
  "contractName": "SubscriptionService",
  "abi": [
    {
      "inputs": [],
      "stateMutability": "nonpayable",
      "type": "constructor"
    },
    {
      "anonymous": false,
      "inputs": [
        {
          "indexed": true,
          "internalType": "address",
          "name": "subscriber",
          "type": "address"
        }
      ],
      "name": "SubscriptionCanceled",
      "type": "event"
    },
    {
      "anonymous": false,
      "inputs": [
        {
          "indexed": false,
          "internalType": "uint256",
          "name": "PlanId",
          "type": "uint256"
        },
        {
          "indexed": false,
          "internalType": "uint256",
          "name": "MonthlyFee",
          "type": "uint256"
        }
      ],
      "name": "SubscriptionPlanSet",
      "type": "event"
    },
    {
      "anonymous": false,
      "inputs": [
        {
          "indexed": true,
          "internalType": "address",
          "name": "subscriber",
          "type": "address"
        },
        {
          "indexed": false,
          "internalType": "uint256",
          "name": "PlanId",
          "type": "uint256"
        }
      ],
      "name": "SubscriptionStarted",
      "type": "event"
    },
    {
      "anonymous": false,
      "inputs": [
        {
          "indexed": false,
          "internalType": "uint256",
          "name": "balance",
          "type": "uint256"
        }
      ],
      "name": "Withdraw",
      "type": "event"
    },
    {
      "inputs": [],
      "name": "serviceProvider",
      "outputs": [
        {
          "internalType": "address",
          "name": "",
          "type": "address"
        }
      ],
      "stateMutability": "view",
      "type": "function",
      "constant": true
    },
    {
      "inputs": [
        {
          "internalType": "address",
          "name": "",
          "type": "address"
        }
      ],
      "name": "subscribers",
      "outputs": [
        {
          "internalType": "uint256",
          "name": "balance",
          "type": "uint256"
        },
        {
          "internalType": "uint256",
          "name": "subscriptionTime",
          "type": "uint256"
        },
        {
          "internalType": "uint256",
          "name": "planId",
          "type": "uint256"
        },
        {
          "internalType": "bool",
          "name": "isActive",
          "type": "bool"
        }
      ],
      "stateMutability": "view",
      "type": "function",
      "constant": true
    },
    {
      "inputs": [
        {
          "internalType": "uint256",
          "name": "",
          "type": "uint256"
        }
      ],
      "name": "subscriptionPlans",
      "outputs": [
        {
          "internalType": "uint256",
          "name": "",
          "type": "uint256"
        }
      ],
      "stateMutability": "view",
      "type": "function",
      "constant": true
    },
    {
      "stateMutability": "payable",
      "type": "receive",
      "payable": true
    },
    {
      "inputs": [
        {
          "internalType": "uint256",
          "name": "planId",
          "type": "uint256"
        },
        {
          "internalType": "uint256",
          "name": "monthlyFee",
          "type": "uint256"
        }
      ],
      "name": "setSubscriptionPlan",
      "outputs": [],
      "stateMutability": "nonpayable",
      "type": "function"
    },
    {
      "inputs": [
        {
          "internalType": "uint256",
          "name": "planId",
          "type": "uint256"
        }
      ],
      "name": "subscribe",
      "outputs": [],
      "stateMutability": "payable",
      "type": "function",
      "payable": true
    },
    {
      "inputs": [],
      "name": "isSubscriptionActive",
      "outputs": [
        {
          "internalType": "bool",
          "name": "",
          "type": "bool"
        }
      ],
      "stateMutability": "view",
      "type": "function",
      "constant": true
    },
    {
      "inputs": [],
      "name": "cancelSubscription",
      "outputs": [],
      "stateMutability": "nonpayable",
      "type": "function"
    },
    {
      "inputs": [],
      "name": "withdraw",
      "outputs": [],
      "stateMutability": "nonpayable",
      "type": "function"
    }
  ],
  "bytecode": "0x608060405234801561001057600080fd5b50336000806101000a81548173ffffffffffffffffffffffffffffffffffffffff021916908373ffffffffffffffffffffffffffffffffffffffff160217905550610ded806100606000396000f3fe60806040526004361061007f5760003560e01c80635745ae281161004e5780635745ae28146101125780635dc8f865146101525780638d69e95e1461017d578063c4727940146101a857610086565b80630f574ba71461008b57806324e9edb0146100a7578063284c7f35146100be5780633ccfd60b146100fb57610086565b3661008657005b600080fd5b6100a560048036038101906100a09190610903565b6101d1565b005b3480156100b357600080fd5b506100bc610402565b005b3480156100ca57600080fd5b506100e560048036038101906100e09190610903565b610531565b6040516100f2919061093f565b60405180910390f35b34801561010757600080fd5b50610110610549565b005b34801561011e57600080fd5b50610139600480360381019061013491906109b8565b6106c0565b6040516101499493929190610a00565b60405180910390f35b34801561015e57600080fd5b506101676106fd565b6040516101749190610a45565b60405180910390f35b34801561018957600080fd5b506101926107c1565b60405161019f9190610a6f565b60405180910390f35b3480156101b457600080fd5b506101cf60048036038101906101ca9190610a8a565b6107e5565b005b6000600160008381526020019081526020016000205490506000811161022c576040517f08c379a000000000000000000000000000000000000000000000000000000000815260040161022390610b27565b60405180910390fd5b80341461026e576040517f08c379a000000000000000000000000000000000000000000000000000000000815260040161026590610b93565b60405180910390fd5b34600260003373ffffffffffffffffffffffffffffffffffffffff1673ffffffffffffffffffffffffffffffffffffffff16815260200190815260200160002060000160008282546102c09190610be2565b9250508190555042600260003373ffffffffffffffffffffffffffffffffffffffff1673ffffffffffffffffffffffffffffffffffffffff1681526020019081526020016000206001018190555081600260003373ffffffffffffffffffffffffffffffffffffffff1673ffffffffffffffffffffffffffffffffffffffff168152602001908152602001600020600201819055506001600260003373ffffffffffffffffffffffffffffffffffffffff1673ffffffffffffffffffffffffffffffffffffffff16815260200190815260200160002060030160006101000a81548160ff0219169083151502179055503373ffffffffffffffffffffffffffffffffffffffff167f3569431152110722ac0db636dd27ae1423bce34e35a19c281a7b4fcbb280ceb5836040516103f6919061093f565b60405180910390a25050565b600260003373ffffffffffffffffffffffffffffffffffffffff1673ffffffffffffffffffffffffffffffffffffffff16815260200190815260200160002060030160009054906101000a900460ff16610491576040517f08c379a000000000000000000000000000000000000000000000000000000000815260040161048890610c62565b60405180910390fd5b6000600260003373ffffffffffffffffffffffffffffffffffffffff1673ffffffffffffffffffffffffffffffffffffffff16815260200190815260200160002060030160006101000a81548160ff0219169083151502179055503373ffffffffffffffffffffffffffffffffffffffff167f5213c53f2b929aa370ea1f22f57b571b8a8d78a193eb26b0d9596561e335aa0460405160405180910390a2565b60016020528060005260406000206000915090505481565b60008054906101000a900473ffffffffffffffffffffffffffffffffffffffff1673ffffffffffffffffffffffffffffffffffffffff163373ffffffffffffffffffffffffffffffffffffffff16146105d7576040517f08c379a00000000000000000000000000000000000000000000000000000000081526004016105ce90610cce565b60405180910390fd5b60004790506000811161061f576040517f08c379a000000000000000000000000000000000000000000000000000000000815260040161061690610d3a565b60405180910390fd5b7f5b6b431d4476a211bb7d41c20d1aab9ae2321deee0d20be3d9fc9b1093fa6e3d8160405161064e919061093f565b60405180910390a160008054906101000a900473ffffffffffffffffffffffffffffffffffffffff1673ffffffffffffffffffffffffffffffffffffffff166108fc829081150290604051600060405180830381858888f193505050501580156106bc573d6000803e3d6000fd5b5050565b60026020528060005260406000206000915090508060000154908060010154908060020154908060030160009054906101000a900460ff16905084565b600080600260003373ffffffffffffffffffffffffffffffffffffffff1673ffffffffffffffffffffffffffffffffffffffff1681526020019081526020016000206040518060800160405290816000820154815260200160018201548152602001600282015481526020016003820160009054906101000a900460ff161515151581525050905080606001516107985760009150506107be565b60008160200151426107aa9190610d5a565b9050600062278d0090508082111593505050505b90565b60008054906101000a900473ffffffffffffffffffffffffffffffffffffffff1681565b60008054906101000a900473ffffffffffffffffffffffffffffffffffffffff1673ffffffffffffffffffffffffffffffffffffffff163373ffffffffffffffffffffffffffffffffffffffff1614610873576040517f08c379a000000000000000000000000000000000000000000000000000000000815260040161086a90610cce565b60405180910390fd5b8060016000848152602001908152602001600020819055507fad98b468cca2e8cd3b937b371acc7e942a569888945e9843a712047b57d6c22682826040516108bc929190610d8e565b60405180910390a15050565b600080fd5b6000819050919050565b6108e0816108cd565b81146108eb57600080fd5b50565b6000813590506108fd816108d7565b92915050565b600060208284031215610919576109186108c8565b5b6000610927848285016108ee565b91505092915050565b610939816108cd565b82525050565b60006020820190506109546000830184610930565b92915050565b600073ffffffffffffffffffffffffffffffffffffffff82169050919050565b60006109858261095a565b9050919050565b6109958161097a565b81146109a057600080fd5b50565b6000813590506109b28161098c565b92915050565b6000602082840312156109ce576109cd6108c8565b5b60006109dc848285016109a3565b91505092915050565b60008115159050919050565b6109fa816109e5565b82525050565b6000608082019050610a156000830187610930565b610a226020830186610930565b610a2f6040830185610930565b610a3c60608301846109f1565b95945050505050565b6000602082019050610a5a60008301846109f1565b92915050565b610a698161097a565b82525050565b6000602082019050610a846000830184610a60565b92915050565b60008060408385031215610aa157610aa06108c8565b5b6000610aaf858286016108ee565b9250506020610ac0858286016108ee565b9150509250929050565b600082825260208201905092915050565b7f496e76616c696420737562736372697074696f6e20706c616e00000000000000600082015250565b6000610b11601983610aca565b9150610b1c82610adb565b602082019050919050565b60006020820190508181036000830152610b4081610b04565b9050919050565b7f496e636f727265637420737562736372697074696f6e20666565000000000000600082015250565b6000610b7d601a83610aca565b9150610b8882610b47565b602082019050919050565b60006020820190508181036000830152610bac81610b70565b9050919050565b7f4e487b7100000000000000000000000000000000000000000000000000000000600052601160045260246000fd5b6000610bed826108cd565b9150610bf8836108cd565b9250828201905080821115610c1057610c0f610bb3565b5b92915050565b7f537562736372697074696f6e206973206e6f7420616374697665000000000000600082015250565b6000610c4c601a83610aca565b9150610c5782610c16565b602082019050919050565b60006020820190508181036000830152610c7b81610c3f565b9050919050565b7f4e6f7420617574686f72697a6564000000000000000000000000000000000000600082015250565b6000610cb8600e83610aca565b9150610cc382610c82565b602082019050919050565b60006020820190508181036000830152610ce781610cab565b9050919050565b7f4e6f2066756e647320617661696c61626c650000000000000000000000000000600082015250565b6000610d24601283610aca565b9150610d2f82610cee565b602082019050919050565b60006020820190508181036000830152610d5381610d17565b9050919050565b6000610d65826108cd565b9150610d70836108cd565b9250828203905081811115610d8857610d87610bb3565b5b92915050565b6000604082019050610da36000830185610930565b610db06020830184610930565b939250505056fea2646970667358221220f6b76e5f35d213b4fe91dd63326d087e05ae78cdc3d1c671b478380189e652d764736f6c63430008130033",
  "immutableReferences": {},
  "source": "// SPDX-License-Identifier: MIT\r\npragma solidity ^0.8.0;\r\n\r\ncontract SubscriptionService {\r\n\r\n    struct Subscriber {\r\n        uint256 balance;\r\n        uint256 subscriptionTime;\r\n        uint256 planId;\r\n        bool isActive;\r\n    }\r\n\r\n    address public serviceProvider;\r\n    mapping(uint256 => uint256) public subscriptionPlans;\r\n    mapping(address => Subscriber) public subscribers;\r\n\r\n    event SubscriptionStarted(address indexed subscriber, uint PlanId);\r\n    event SubscriptionCanceled(address indexed subscriber);\r\n    event SubscriptionPlanSet(uint PlanId, uint256 MonthlyFee);\r\n    event Withdraw(uint256 balance);\r\n\r\n    modifier onlyServiceProvider() {\r\n        require(msg.sender == serviceProvider, \"Not authorized\");\r\n        _;\r\n    }\r\n\r\n    modifier onlyActiveSubscriber() {\r\n        require(subscribers[msg.sender].isActive, \"Subscription is not active\");\r\n        _;\r\n    }\r\n\r\n    constructor() {\r\n        serviceProvider = msg.sender;\r\n    }\r\n\r\n    function setSubscriptionPlan(uint planId, uint256 monthlyFee) external onlyServiceProvider {\r\n        subscriptionPlans[planId] = monthlyFee;\r\n        emit SubscriptionPlanSet(planId, monthlyFee);\r\n    }\r\n\r\n    function subscribe(uint256 planId) external payable {\r\n        uint256 fee = subscriptionPlans[planId];\r\n        require(fee > 0, \"Invalid subscription plan\");\r\n        require(msg.value == fee, \"Incorrect subscription fee\");\r\n\r\n        subscribers[msg.sender].balance += msg.value;\r\n        subscribers[msg.sender].subscriptionTime = block.timestamp;\r\n        subscribers[msg.sender].planId = planId;\r\n        subscribers[msg.sender].isActive = true;\r\n\r\n        emit SubscriptionStarted(msg.sender, planId);\r\n    }\r\n\r\n    function isSubscriptionActive() public view returns (bool) {\r\n        Subscriber memory sub = subscribers[msg.sender];\r\n        if (!sub.isActive) return false;\r\n        uint256 elapsedTime = block.timestamp - sub.subscriptionTime;\r\n        uint256 requiredTime = 30 days;\r\n        return elapsedTime <= requiredTime;\r\n    }\r\n\r\n    function cancelSubscription() external onlyActiveSubscriber {\r\n        subscribers[msg.sender].isActive = false;\r\n        emit SubscriptionCanceled(msg.sender);\r\n    }\r\n\r\n    function withdraw() external onlyServiceProvider {\r\n        uint256 balance = address(this).balance;\r\n        require(balance > 0, \"No funds available\");\r\n        emit Withdraw(balance);\r\n        payable(serviceProvider).transfer(balance);\r\n    }\r\n\r\n    receive() external payable {}\r\n}\r\n",
  "sourcePath": "C:\\Users\\tomas\\Desktop\\Dapp\\contracts\\Subscription.sol",
  "compiler": {
    "name": "solc",
    "version": "0.8.19+commit.7dd6d404.Emscripten.clang"
  },
  "schemaVersion": "3.4.16",
  "updatedAt": "2024-12-08T14:57:40.007Z",
  "networkType": "ethereum",
  "devdoc": {
    "kind": "dev",
    "methods": {},
    "version": 1
  },
  "userdoc": {
    "kind": "user",
    "methods": {},
    "version": 1
  }
}